{
  "contractName": "BettingContract",
  "abi": [
    {
      "anonymous": false,
      "inputs": [
        {
          "indexed": false,
          "internalType": "address",
          "name": "winner",
          "type": "address"
        },
        {
          "indexed": false,
          "internalType": "uint256",
          "name": "amount",
          "type": "uint256"
        }
      ],
      "name": "BettingEnded",
      "type": "event"
    },
    {
      "constant": true,
      "inputs": [],
      "name": "bidEndTime",
      "outputs": [
        {
          "internalType": "uint256",
          "name": "",
          "type": "uint256"
        }
      ],
      "payable": false,
      "stateMutability": "view",
      "type": "function"
    },
    {
      "constant": true,
      "inputs": [
        {
          "internalType": "uint256",
          "name": "",
          "type": "uint256"
        }
      ],
      "name": "bids",
      "outputs": [
        {
          "internalType": "uint256",
          "name": "bid",
          "type": "uint256"
        },
        {
          "internalType": "address payable",
          "name": "account",
          "type": "address"
        }
      ],
      "payable": false,
      "stateMutability": "view",
      "type": "function"
    },
    {
      "constant": false,
      "inputs": [
        {
          "internalType": "uint256",
          "name": "bidValue",
          "type": "uint256"
        }
      ],
      "name": "bid",
      "outputs": [],
      "payable": true,
      "stateMutability": "payable",
      "type": "function"
    },
    {
      "constant": false,
      "inputs": [
        {
          "internalType": "uint256",
          "name": "stockValue",
          "type": "uint256"
        }
      ],
      "name": "bettingEnd",
      "outputs": [],
      "payable": false,
      "stateMutability": "nonpayable",
      "type": "function"
    }
  ],
  "bytecode": "0x608060405234801561001057600080fd5b5061031e806100206000396000f3fe60806040526004361061003f5760003560e01c80634423c5f114610044578063454a2ab3146100c65780634ba9a927146100f45780636cf151f01461011f575b600080fd5b34801561005057600080fd5b5061007d6004803603602081101561006757600080fd5b810190808035906020019092919050505061015a565b604051808381526020018273ffffffffffffffffffffffffffffffffffffffff1673ffffffffffffffffffffffffffffffffffffffff1681526020019250505060405180910390f35b6100f2600480360360208110156100dc57600080fd5b81019080803590602001909291905050506101ab565b005b34801561010057600080fd5b5061010961025a565b6040518082815260200191505060405180910390f35b34801561012b57600080fd5b506101586004803603602081101561014257600080fd5b8101908080359060200190929190505050610260565b005b6000818154811061016757fe5b90600052602060002090600202016000915090508060000154908060010160009054906101000a900473ffffffffffffffffffffffffffffffffffffffff16905082565b600060405180604001604052808381526020013373ffffffffffffffffffffffffffffffffffffffff16815250908060018154018082558091505090600182039060005260206000209060020201600090919290919091506000820151816000015560208201518160010160006101000a81548173ffffffffffffffffffffffffffffffffffffffff021916908373ffffffffffffffffffffffffffffffffffffffff16021790555050505050565b60015481565b6001600260006101000a81548160ff0219169083151502179055507fdb7590473376bc361409dd8125823c3ee0e7adb45904229eca95153e8781c5e83382604051808373ffffffffffffffffffffffffffffffffffffffff1673ffffffffffffffffffffffffffffffffffffffff1681526020018281526020019250505060405180910390a15056fea265627a7a723158209f242a26f6a62e77ad4f0edcf6aa94a4ea403ca6d1c4bf4cc6db8abaa8bfe25764736f6c63430005100032",
  "source": "pragma solidity 0.5.16;\r\n\r\n//todo: StockBetting\r\ncontract BettingContract {\r\n    // Parameters of the auction. Times are either\r\n    // absolute unix timestamps (seconds since 1970-01-01)\r\n    // or time periods in seconds.\r\n    //todo: list of persons that can bid\r\n\r\n     // This is a type for a single proposal.\r\n    // todo: person? Bid-> Bider\r\n    struct Bid {\r\n        // bytes32 name;   // short name (up to 32 bytes)\r\n        uint bid; // number of accumulated votes\r\n        address payable account;\r\n    }\r\n\r\n    Bid[] public bids;\r\n\r\n    // address payable public person_a;\r\n    // address payable public person_b;\r\n    uint public bidEndTime;\r\n\r\n    //todo: publish address of winner (after contract ended)\r\n    // Current state of the auction.\r\n    // address public highestBidder;\r\n    // uint public highestBid;\r\n\r\n    //tocheck: Not allowed\r\n    // Allowed withdrawals of previous bids\r\n    // mapping(address => uint) pendingReturns;\r\n\r\n    // Set to true at the end, disallows any change.\r\n    // By default initialized to `false`.\r\n    bool ended;\r\n\r\n    // Events that will be emitted on changes.\r\n    // event HighestBidIncreased(address bidder, uint amount);\r\n    event BettingEnded(address winner, uint256 amount);\r\n\r\n    // The following is a so-called natspec comment,\r\n    // recognizable by the three slashes.\r\n    // It will be shown when the user is asked to\r\n    // confirm a transaction.\r\n\r\n    /// Create a simple auction with `_biddingTime`\r\n    /// seconds bidding time on behalf of the\r\n    /// beneficiary address `_beneficiary`.\r\n    // constructor(\r\n    //     uint _biddingTime\r\n    //     // address payable _beneficiary\r\n    // ) public {\r\n    //     // beneficiary = _beneficiary;\r\n    //     bidEndTime = now + _biddingTime;\r\n    // }\r\n\r\n    /// Bid on the auction with the value sent\r\n    /// together with this transaction.\r\n    /// The value will only be refunded if the\r\n    /// auction is not won.\r\n    function bid(uint256 bidValue) public payable {\r\n        // No arguments are necessary, all\r\n        // information is already part of\r\n        // the transaction. The keyword payable\r\n        // is required for the function to\r\n        // be able to receive Ether.\r\n\r\n        // Revert the call if the bidding\r\n        // period is over.\r\n        // require(\r\n        //     now <= bidEndTime,\r\n        //     \"Auction already ended.\"\r\n        // );\r\n\r\n        // If the bid is not higher, send the\r\n        // money back (the failing require\r\n        // will revert all changes in this\r\n        // function execution including\r\n        // it having received the money).\r\n        // require(\r\n        //     msg.value > highestBid,\r\n        //     \"There already is a higher bid.\"\r\n        // );\r\n\r\n        bids.push(Bid({\r\n            account: msg.sender,\r\n            bid: bidValue\r\n        }));\r\n\r\n        //tocheck: Need to send money back to loser?\r\n\r\n        // if (highestBid != 0) {\r\n        //     // Sending back the money by simply using\r\n        //     // highestBidder.send(highestBid) is a security risk\r\n        //     // because it could execute an untrusted contract.\r\n        //     // It is always safer to let the recipients\r\n        //     // withdraw their money themselves.\r\n        //     pendingReturns[highestBidder] += highestBid;\r\n        // }\r\n        // highestBidder = msg.sender;\r\n        // highestBid = msg.value;\r\n\r\n        //todo: publish event when bidadded...\r\n        // emit HighestBidIncreased(msg.sender, msg.value);\r\n    }\r\n\r\n    /// Withdraw a bid that was overbid.\r\n    // function withdraw() public returns (bool) {\r\n    //     uint amount = pendingReturns[msg.sender];\r\n    //     if (amount > 0) {\r\n    //         // It is important to set this to zero because the recipient\r\n    //         // can call this function again as part of the receiving call\r\n    //         // before `send` returns.\r\n    //         pendingReturns[msg.sender] = 0;\r\n\r\n    //         if (!msg.sender.send(amount)) {\r\n    //             // No need to call throw here, just reset the amount owing\r\n    //             pendingReturns[msg.sender] = amount;\r\n    //             return false;\r\n    //         }\r\n    //     }\r\n    //     return true;\r\n    // }\r\n\r\n    /// End the auction and send the highest bid\r\n    /// to the beneficiary.\r\n    // This function is called by executionContract, that is owned by StockVoting\r\n    function bettingEnd(uint256 stockValue) public {\r\n        // It is a good guideline to structure functions that interact\r\n        // with other contracts (i.e. they call functions or send Ether)\r\n        // into three phases:\r\n        // 1. checking conditions\r\n        // 2. performing actions (potentially changing conditions)\r\n        // 3. interacting with other contracts\r\n        // If these phases are mixed up, the other contract could call\r\n        // back into the current contract and modify the state or cause\r\n        // effects (ether payout) to be performed multiple times.\r\n        // If functions called internally include interaction with external\r\n        // contracts, they also have to be considered interaction with\r\n        // external contracts.\r\n\r\n        // 1. Conditions\r\n        //todo: find closest bid\r\n        // while (voters[to].delegate != address(0)) {\r\n        //     to = voters[to].delegate;\r\n\r\n        //     // We found a loop in the delegation, not allowed.\r\n        //     require(to != msg.sender, \"Found loop in delegation.\");\r\n        // }\r\n\r\n        //todo: Check if the msg.sender is the executioncontract\r\n\r\n        //todo: check time\r\n\r\n        // require(now >= bidEndTime, \"Auction not yet ended.\");\r\n        // require(!ended, \"auctionEnd has already been called.\");\r\n\r\n        // 2. Effects\r\n        ended = true;\r\n        // value needs to be transfered to the \r\n        // actualValue=msg.value;\r\n\r\n        emit BettingEnded(msg.sender, stockValue);\r\n\r\n        // 3. Interaction\r\n        // beneficiary.transfer(highestBid);\r\n    }\r\n}",
  "sourcePath": "C:\\Users\\Alexander\\Desktop\\repo\\contracts\\BettingContract.sol",
  "compiler": {
    "name": "solc",
    "version": "0.5.16+commit.9c3226ce.Emscripten.clang"
  },
  "schemaVersion": "3.1.0",
  "updatedAt": "2020-04-25T10:33:07.026Z",
  "devdoc": {
    "methods": {}
  },
  "userdoc": {
    "methods": {
      "bettingEnd(uint256)": {
        "notice": "End the auction and send the highest bid to the beneficiary."
      },
      "bid(uint256)": {
        "notice": "Bid on the auction with the value sent together with this transaction. The value will only be refunded if the auction is not won."
      }
    }
  }
}