{
  "contractName": "TodoList",
  "abi": [
    {
      "constant": true,
      "inputs": [
        {
          "internalType": "address",
          "name": "",
          "type": "address"
        }
      ],
      "name": "lastIds",
      "outputs": [
        {
          "internalType": "uint256",
          "name": "",
          "type": "uint256"
        }
      ],
      "payable": false,
      "stateMutability": "view",
      "type": "function"
    },
    {
      "constant": true,
      "inputs": [],
      "name": "maxAmountOfTodos",
      "outputs": [
        {
          "internalType": "uint256",
          "name": "",
          "type": "uint256"
        }
      ],
      "payable": false,
      "stateMutability": "view",
      "type": "function"
    },
    {
      "constant": true,
      "inputs": [
        {
          "internalType": "address",
          "name": "",
          "type": "address"
        },
        {
          "internalType": "uint256",
          "name": "",
          "type": "uint256"
        }
      ],
      "name": "todos",
      "outputs": [
        {
          "internalType": "uint256",
          "name": "id",
          "type": "uint256"
        },
        {
          "internalType": "bytes32",
          "name": "content",
          "type": "bytes32"
        },
        {
          "internalType": "address",
          "name": "owner",
          "type": "address"
        },
        {
          "internalType": "bool",
          "name": "isCompleted",
          "type": "bool"
        },
        {
          "internalType": "uint256",
          "name": "timestamp",
          "type": "uint256"
        }
      ],
      "payable": false,
      "stateMutability": "view",
      "type": "function"
    },
    {
      "constant": false,
      "inputs": [
        {
          "internalType": "bytes32",
          "name": "_content",
          "type": "bytes32"
        }
      ],
      "name": "addTodo",
      "outputs": [],
      "payable": false,
      "stateMutability": "nonpayable",
      "type": "function"
    },
    {
      "constant": false,
      "inputs": [
        {
          "internalType": "uint256",
          "name": "_todoId",
          "type": "uint256"
        }
      ],
      "name": "markTodoAsCompleted",
      "outputs": [],
      "payable": false,
      "stateMutability": "nonpayable",
      "type": "function"
    }
  ],
  "bytecode": "0x608060405234801561001057600080fd5b506106f9806100206000396000f3fe608060405234801561001057600080fd5b50600436106100575760003560e01c8063332494a61461005c578063428c18891461007a578063a747491814610128578063aaed706a14610180578063da2f6460146101ae575b600080fd5b6100646101dc565b6040518082815260200191505060405180910390f35b6100c66004803603604081101561009057600080fd5b81019080803573ffffffffffffffffffffffffffffffffffffffff169060200190929190803590602001909291905050506101e1565b604051808681526020018581526020018473ffffffffffffffffffffffffffffffffffffffff1673ffffffffffffffffffffffffffffffffffffffff168152602001831515151581526020018281526020019550505050505060405180910390f35b61016a6004803603602081101561013e57600080fd5b81019080803573ffffffffffffffffffffffffffffffffffffffff169060200190929190505050610254565b6040518082815260200191505060405180910390f35b6101ac6004803603602081101561019657600080fd5b810190808035906020019092919050505061026c565b005b6101da600480360360208110156101c457600080fd5b81019080803590602001909291905050506103f7565b005b606481565b600060205281600052604060002081606481106101fa57fe5b60040201600091509150508060000154908060010154908060020160009054906101000a900473ffffffffffffffffffffffffffffffffffffffff16908060020160149054906101000a900460ff16908060030154905085565b60016020528060005260406000206000915090505481565b6000803373ffffffffffffffffffffffffffffffffffffffff1673ffffffffffffffffffffffffffffffffffffffff16815260200190815260200160002081606481106102b557fe5b6004020160020160009054906101000a900473ffffffffffffffffffffffffffffffffffffffff168073ffffffffffffffffffffffffffffffffffffffff163373ffffffffffffffffffffffffffffffffffffffff161461031557600080fd5b6064821061032257600080fd5b6000803373ffffffffffffffffffffffffffffffffffffffff1673ffffffffffffffffffffffffffffffffffffffff168152602001908152602001600020826064811061036b57fe5b6004020160020160149054906101000a900460ff161561038a57600080fd5b60016000803373ffffffffffffffffffffffffffffffffffffffff1673ffffffffffffffffffffffffffffffffffffffff16815260200190815260200160002083606481106103d557fe5b6004020160020160146101000a81548160ff0219169083151502179055505050565b6103ff61067a565b6040518060a00160405280600160003373ffffffffffffffffffffffffffffffffffffffff1673ffffffffffffffffffffffffffffffffffffffff1681526020019081526020016000205481526020018381526020013373ffffffffffffffffffffffffffffffffffffffff168152602001600015158152602001428152509050806000803373ffffffffffffffffffffffffffffffffffffffff1673ffffffffffffffffffffffffffffffffffffffff168152602001908152602001600020600160003373ffffffffffffffffffffffffffffffffffffffff1673ffffffffffffffffffffffffffffffffffffffff168152602001908152602001600020546064811061050957fe5b60040201600082015181600001556020820151816001015560408201518160020160006101000a81548173ffffffffffffffffffffffffffffffffffffffff021916908373ffffffffffffffffffffffffffffffffffffffff16021790555060608201518160020160146101000a81548160ff021916908315150217905550608082015181600301559050506064600160003373ffffffffffffffffffffffffffffffffffffffff1673ffffffffffffffffffffffffffffffffffffffff1681526020019081526020016000205410610626576000600160003373ffffffffffffffffffffffffffffffffffffffff1673ffffffffffffffffffffffffffffffffffffffff16815260200190815260200160002081905550610676565b600160003373ffffffffffffffffffffffffffffffffffffffff1673ffffffffffffffffffffffffffffffffffffffff168152602001908152602001600020600081548092919060010191905055505b5050565b6040518060a001604052806000815260200160008019168152602001600073ffffffffffffffffffffffffffffffffffffffff16815260200160001515815260200160008152509056fea265627a7a723158208fb966d877212e428686f8dfb96798a61129a79a5432ccfc4a7bbb7eaf9d68d264736f6c63430005100032",
  "source": "pragma solidity 0.5.16;\r\n\r\ncontract TodoList {\r\n   struct Todo {\r\n      uint256 id;\r\n      bytes32 content;\r\n      address owner;\r\n      bool isCompleted;\r\n      uint256 timestamp;\r\n   }\r\n   \r\n   uint256 public constant maxAmountOfTodos = 100;\r\n\r\n   // Owner => todos\r\n   mapping(address => Todo[maxAmountOfTodos]) public todos;\r\n   // Owner => last todo id\r\n   mapping(address => uint256) public lastIds;\r\n   modifier onlyOwner(address _owner) {\r\n      require(msg.sender == _owner);\r\n      _;\r\n   }\r\n   // Add a todo to the list\r\n   function addTodo(bytes32 _content) public {\r\n      Todo memory myNote = Todo(lastIds[msg.sender], _content, msg.sender, false, now);\r\n      todos[msg.sender][lastIds[msg.sender]] = myNote;\r\n      if(lastIds[msg.sender] >= maxAmountOfTodos) lastIds[msg.sender] = 0;\r\n      else lastIds[msg.sender]++;\r\n   }\r\n   // Mark a todo as completed\r\n   function markTodoAsCompleted(uint256 _todoId) public onlyOwner(todos[msg.sender][_todoId].owner) {\r\n      require(_todoId < maxAmountOfTodos);\r\n      require(!todos[msg.sender][_todoId].isCompleted);\r\n      \r\n      todos[msg.sender][_todoId].isCompleted = true;\r\n   }\r\n}\r\n",
  "sourcePath": "C:\\Users\\Alexander\\Desktop\\repo\\contracts\\TodoList.sol",
  "compiler": {
    "name": "solc",
    "version": "0.5.16+commit.9c3226ce.Emscripten.clang"
  },
  "schemaVersion": "3.1.0",
  "updatedAt": "2020-04-25T10:33:07.056Z",
  "devdoc": {
    "methods": {}
  },
  "userdoc": {
    "methods": {}
  }
}